:020000040800F2
:10000000600600200D0200084B0200084D020008A7
:100010004F020008510200085302000800000000CF
:100020000000000000000000000000005502000871
:100030005702000800000000590200085B02000897
:100040005D0200085D0200085D0200085D02000814
:100050005D0200085D0200085D0200085D02000804
:100060005D0200085D0200085D0200085D020008F4
:100070005D0200085D0200085D0200085D020008E4
:100080005D0200085D0200085D0200085D020008D4
:100090005D0200085D0200085D0200085D020008C4
:1000A0005D0200085D0200085D0200085D020008B4
:1000B0005D0200085D0200085D0200085D020008A4
:1000C0005D0200085D0200085D0200085D02000894
:1000D0005D0200085D0200085D0200085D02000884
:1000E0005D0200085D0200085D0200085D02000874
:1000F0005D0200085D0200085D0200085D02000864
:100100005D0200085D0200085D0200085D02000853
:100110005D0200085D0200085D0200085D02000843
:100120005D0200085D0200085D0200085D02000833
:100130005D0200085D0200085D0200085D02000823
:100140005D0200085D0200085D0200085D02000813
:100150005D0200085D0200085D0200085D02000803
:100160005D0200085D0200085D0200085D020008F3
:100170005D0200085D0200085D020008000000004A
:100180005D0200085D02000800F002F800F02EF8A1
:100190000AA090E8000C82448344AAF10107DA45E2
:1001A00001D100F023F8AFF2090EBAE80F0013F006
:1001B000010F18BFFB1A43F001031847EC030000BE
:1001C000FC0300000023002400250026103A28BF6D
:1001D00078C1FBD8520728BF30C148BF0B607047B9
:1001E0001FB500F0D4F91FBD10B510BD00F057F8D1
:1001F0001146FFF7F5FF00F09DF900F075F803B424
:10020000FFF7F2FF03BC00F07DF800001748184923
:10021000184B99423CBF50F8042B41F8042BF8D3FB
:10022000154B16494FF000028B4238BF43F8042BA0
:10023000FAD3DFF84C00016841F470010160BFF3AC
:100240004F8FBFF36F8F0F480047FEE7FEE7FEE7D3
:10025000FEE7FEE7FEE7FEE7FEE7FEE7FEE700005B
:1002600009480A490A4A0B4B70470000B8050008C4
:100270000000002000000020000000206006002098
:1002800088ED00E089010008600000206006002081
:10029000600200206002002070477047704775467A
:1002A00000F02CF8AE4605006946534620F00700E2
:1002B000854618B020B5FFF7D3FFBDE820404FF0CA
:1002C00000064FF000074FF000084FF0000BAC465F
:1002D000ACE8C009ACE8C009ACE8C009ACE8C009AA
:1002E00021F007018D46704710B50446AFF300803A
:1002F0002046BDE81040FFF782BF0000004870476D
:100300000000002001491820ABBEFEE726000200D5
:100310007047000084B040F61400C4F60000006886
:10032000800600281FD5FFE740F61400C4F6000041
:1003300000688005002816D5FFE740F61401C4F6D2
:1003400000010391086840F020000860086820F070
:1003500040000860086840F480700860086820F475
:10036000007008607AE040F61400C4F600000068EF
:10037000800600281FD5FFE740F61400C4F60000F1
:100380000068C005002816D5FFE740F61401C4F642
:1003900000010291086820F020000860086840F021
:1003A00040000860086840F480700860086820F425
:1003B0000070086051E040F61400C4F600000068C8
:1003C000400600281FD5FFE740F61400C4F60000E1
:1003D0000068C005002816D5FFE740F61401C4F6F2
:1003E00000010191086820F020000860086840F0D2
:1003F00040000860086820F480700860086840F4D5
:100400000070086028E040F61400C4F600000068A0
:10041000400600281FD5FFE740F61400C4F6000090
:1004200000688005002816D5FFE740F61401C4F6E1
:1004300000010091086840F020000860086820F082
:1004400040000860086820F480700860086840F484
:1004500000700860FFE7FFE7FFE7FFE704B07047C1
:1004600041F24C01C4F20201086840F00400086047
:1004700040F60001C4F60001086820F4006008603E
:10048000086820F400500860086820F40030086014
:10049000086820F40020086040F60801C4F6000156
:1004A000086840F400600860086840F40050086084
:1004B000086840F400300860086840F400200860D4
:1004C000086820F480600860086820F480500860A4
:1004D000086820F480300860086820F480200860F4
:1004E00040F60401C4F60001086820F0200008600E
:1004F000086820F040000860086820F480700860F8
:10050000086820F40070086040F60C01C4F6000191
:10051000086820F440600860086820F440500860D3
:10052000086820F440300860086820F44020086023
:100530007047000080B584B000200390FFF790FF63
:1005400040F61401C4F600010191086840F0200053
:100550000860086820F040000860086820F4807097
:100560000860086840F400700860FFE7FFF7D2FEFB
:1005700000200290FFE7029841F26F71884205DC8B
:10058000FFE7FFE7029801300290F4E7EEE7F1EEB3
:10059000100A4FF6FF71C0F2C03120EA010040F0AE
:1005A0004070E1EE100A7047B80500080000002016
:0805B00060060000C401000810
:040000050800018965
:00000001FF
